{
  "contractName": "Bet",
  "abi": [
    {
      "inputs": [],
      "stateMutability": "nonpayable",
      "type": "constructor"
    },
    {
      "anonymous": false,
      "inputs": [
        {
          "indexed": true,
          "internalType": "address",
          "name": "playe",
          "type": "address"
        },
        {
          "indexed": false,
          "internalType": "uint256",
          "name": "amount",
          "type": "uint256"
        }
      ],
      "name": "BetPlaced",
      "type": "event"
    },
    {
      "anonymous": false,
      "inputs": [
        {
          "indexed": true,
          "internalType": "address",
          "name": "winner",
          "type": "address"
        },
        {
          "indexed": false,
          "internalType": "uint256",
          "name": "amount",
          "type": "uint256"
        }
      ],
      "name": "WinnerChosen",
      "type": "event"
    },
    {
      "inputs": [],
      "name": "betAmount",
      "outputs": [
        {
          "internalType": "uint256",
          "name": "",
          "type": "uint256"
        }
      ],
      "stateMutability": "view",
      "type": "function",
      "constant": true
    },
    {
      "inputs": [
        {
          "internalType": "address",
          "name": "",
          "type": "address"
        }
      ],
      "name": "hasBet",
      "outputs": [
        {
          "internalType": "bool",
          "name": "",
          "type": "bool"
        }
      ],
      "stateMutability": "view",
      "type": "function",
      "constant": true
    },
    {
      "inputs": [],
      "name": "owner",
      "outputs": [
        {
          "internalType": "address",
          "name": "",
          "type": "address"
        }
      ],
      "stateMutability": "view",
      "type": "function",
      "constant": true
    },
    {
      "inputs": [
        {
          "internalType": "uint256",
          "name": "",
          "type": "uint256"
        }
      ],
      "name": "players",
      "outputs": [
        {
          "internalType": "address",
          "name": "",
          "type": "address"
        }
      ],
      "stateMutability": "view",
      "type": "function",
      "constant": true
    },
    {
      "inputs": [],
      "name": "placeBet",
      "outputs": [],
      "stateMutability": "payable",
      "type": "function",
      "payable": true
    },
    {
      "inputs": [],
      "name": "pickWinner",
      "outputs": [],
      "stateMutability": "nonpayable",
      "type": "function"
    },
    {
      "inputs": [],
      "name": "getPool",
      "outputs": [
        {
          "internalType": "uint256",
          "name": "",
          "type": "uint256"
        }
      ],
      "stateMutability": "view",
      "type": "function",
      "constant": true
    },
    {
      "inputs": [],
      "name": "getPlayers",
      "outputs": [
        {
          "internalType": "address[]",
          "name": "",
          "type": "address[]"
        }
      ],
      "stateMutability": "view",
      "type": "function",
      "constant": true
    }
  ],
  "bytecode": "0x608060405234801561001057600080fd5b50336000806101000a81548173ffffffffffffffffffffffffffffffffffffffff021916908373ffffffffffffffffffffffffffffffffffffffff160217905550610eed806100606000396000f3fe60806040526004361061007b5760003560e01c80638da5cb5b1161004e5780638da5cb5b1461012a578063d24257c014610155578063f71d96cb14610180578063f90f4560146101bd5761007b565b8063026b1d5f14610080578063136f1016146100ab5780635d495aea146100e85780638b5b9ccc146100ff575b600080fd5b34801561008c57600080fd5b506100956101c7565b6040516100a291906107e8565b60405180910390f35b3480156100b757600080fd5b506100d260048036038101906100cd9190610866565b6101cf565b6040516100df91906108ae565b60405180910390f35b3480156100f457600080fd5b506100fd6101ef565b005b34801561010b57600080fd5b506101146104b2565b6040516101219190610987565b60405180910390f35b34801561013657600080fd5b5061013f610540565b60405161014c91906109b8565b60405180910390f35b34801561016157600080fd5b5061016a610564565b60405161017791906107e8565b60405180910390f35b34801561018c57600080fd5b506101a760048036038101906101a291906109ff565b610570565b6040516101b491906109b8565b60405180910390f35b6101c56105af565b005b600047905090565b60026020528060005260406000206000915054906101000a900460ff1681565b60008054906101000a900473ffffffffffffffffffffffffffffffffffffffff1673ffffffffffffffffffffffffffffffffffffffff163373ffffffffffffffffffffffffffffffffffffffff161461027d576040517f08c379a000000000000000000000000000000000000000000000000000000000815260040161027490610aaf565b60405180910390fd5b6000600180549050116102c5576040517f08c379a00000000000000000000000000000000000000000000000000000000081526004016102bc90610b1b565b60405180910390fd5b6000600180549050444260016040516020016102e393929190610c7a565b6040516020818303038152906040528051906020012060001c6103069190610ce2565b905060006001828154811061031e5761031d610d13565b5b9060005260206000200160009054906101000a900473ffffffffffffffffffffffffffffffffffffffff16905060004790508173ffffffffffffffffffffffffffffffffffffffff166108fc829081150290604051600060405180830381858888f19350505050158015610396573d6000803e3d6000fd5b508173ffffffffffffffffffffffffffffffffffffffff167fc5d1e2a43e1052756e222065802cb80a029bfaf7045b3df42c5c87b92e48de41826040516103dd91906107e8565b60405180910390a260005b60018054905081101561049e576000600260006001848154811061040f5761040e610d13565b5b9060005260206000200160009054906101000a900473ffffffffffffffffffffffffffffffffffffffff1673ffffffffffffffffffffffffffffffffffffffff1673ffffffffffffffffffffffffffffffffffffffff16815260200190815260200160002060006101000a81548160ff021916908315150217905550808061049690610d71565b9150506103e8565b50600160006104ad9190610791565b505050565b6060600180548060200260200160405190810160405280929190818152602001828054801561053657602002820191906000526020600020905b8160009054906101000a900473ffffffffffffffffffffffffffffffffffffffff1673ffffffffffffffffffffffffffffffffffffffff16815260200190600101908083116104ec575b5050505050905090565b60008054906101000a900473ffffffffffffffffffffffffffffffffffffffff1681565b671bc16d674ec8000081565b6001818154811061058057600080fd5b906000526020600020016000915054906101000a900473ffffffffffffffffffffffffffffffffffffffff1681565b671bc16d674ec8000034146105f9576040517f08c379a00000000000000000000000000000000000000000000000000000000081526004016105f090610e05565b60405180910390fd5b600260003373ffffffffffffffffffffffffffffffffffffffff1673ffffffffffffffffffffffffffffffffffffffff16815260200190815260200160002060009054906101000a900460ff1615610686576040517f08c379a000000000000000000000000000000000000000000000000000000000815260040161067d90610e97565b60405180910390fd5b6001339080600181540180825580915050600190039060005260206000200160009091909190916101000a81548173ffffffffffffffffffffffffffffffffffffffff021916908373ffffffffffffffffffffffffffffffffffffffff1602179055506001600260003373ffffffffffffffffffffffffffffffffffffffff1673ffffffffffffffffffffffffffffffffffffffff16815260200190815260200160002060006101000a81548160ff0219169083151502179055503373ffffffffffffffffffffffffffffffffffffffff167f43e08d78302cdf9c94e1ffd293c2a3696139ee41cf3199b6f5eed9c7f6cc60903460405161078791906107e8565b60405180910390a2565b50805460008255906000526020600020908101906107af91906107b2565b50565b5b808211156107cb5760008160009055506001016107b3565b5090565b6000819050919050565b6107e2816107cf565b82525050565b60006020820190506107fd60008301846107d9565b92915050565b600080fd5b600073ffffffffffffffffffffffffffffffffffffffff82169050919050565b600061083382610808565b9050919050565b61084381610828565b811461084e57600080fd5b50565b6000813590506108608161083a565b92915050565b60006020828403121561087c5761087b610803565b5b600061088a84828501610851565b91505092915050565b60008115159050919050565b6108a881610893565b82525050565b60006020820190506108c3600083018461089f565b92915050565b600081519050919050565b600082825260208201905092915050565b6000819050602082019050919050565b6108fe81610828565b82525050565b600061091083836108f5565b60208301905092915050565b6000602082019050919050565b6000610934826108c9565b61093e81856108d4565b9350610949836108e5565b8060005b8381101561097a5781516109618882610904565b975061096c8361091c565b92505060018101905061094d565b5085935050505092915050565b600060208201905081810360008301526109a18184610929565b905092915050565b6109b281610828565b82525050565b60006020820190506109cd60008301846109a9565b92915050565b6109dc816107cf565b81146109e757600080fd5b50565b6000813590506109f9816109d3565b92915050565b600060208284031215610a1557610a14610803565b5b6000610a23848285016109ea565b91505092915050565b600082825260208201905092915050565b7f4f6e6c79206f776e65722063616e2063616c6c20746869732066756e6374696f60008201527f6e00000000000000000000000000000000000000000000000000000000000000602082015250565b6000610a99602183610a2c565b9150610aa482610a3d565b604082019050919050565b60006020820190508181036000830152610ac881610a8c565b9050919050565b7f4e6f20706c6179657273206861766520706c6163656420626574732e00000000600082015250565b6000610b05601c83610a2c565b9150610b1082610acf565b602082019050919050565b60006020820190508181036000830152610b3481610af8565b9050919050565b6000819050919050565b610b56610b51826107cf565b610b3b565b82525050565b600081549050919050565b600081905092915050565b60008190508160005260206000209050919050565b610b9081610828565b82525050565b6000610ba28383610b87565b60208301905092915050565b60008160001c9050919050565b600073ffffffffffffffffffffffffffffffffffffffff82169050919050565b6000610bee610be983610bae565b610bbb565b9050919050565b6000610c018254610bdb565b9050919050565b6000600182019050919050565b6000610c2082610b5c565b610c2a8185610b67565b9350610c3583610b72565b8060005b83811015610c6d57610c4a82610bf5565b610c548882610b96565b9750610c5f83610c08565b925050600181019050610c39565b5085935050505092915050565b6000610c868286610b45565b602082019150610c968285610b45565b602082019150610ca68284610c15565b9150819050949350505050565b7f4e487b7100000000000000000000000000000000000000000000000000000000600052601260045260246000fd5b6000610ced826107cf565b9150610cf8836107cf565b925082610d0857610d07610cb3565b5b828206905092915050565b7f4e487b7100000000000000000000000000000000000000000000000000000000600052603260045260246000fd5b7f4e487b7100000000000000000000000000000000000000000000000000000000600052601160045260246000fd5b6000610d7c826107cf565b91507fffffffffffffffffffffffffffffffffffffffffffffffffffffffffffffffff8203610dae57610dad610d42565b5b600182019050919050565b7f42657420616d6f756e74206d7573742062652032204554482e00000000000000600082015250565b6000610def601983610a2c565b9150610dfa82610db9565b602082019050919050565b60006020820190508181036000830152610e1e81610de2565b9050919050565b7f54686520706c617965722077697468207468697320616464726573732068617360008201527f20616c726561647920706c616365642061206265742e00000000000000000000602082015250565b6000610e81603683610a2c565b9150610e8c82610e25565b604082019050919050565b60006020820190508181036000830152610eb081610e74565b905091905056fea2646970667358221220bbf69cb33a5cc0f41a2b272959accf8d075e646adea881f9ea51498ba99564bc64736f6c63430008130033",
  "immutableReferences": {},
  "source": "// SPDX-License-Identifier: MIT\r\npragma solidity ^0.8.0;\r\n\r\ncontract Bet{\r\n    address public owner;\r\n    uint256 public constant betAmount = 2 ether;\r\n    address[] public players;\r\n    mapping(address => bool) public hasBet;\r\n\r\n    event BetPlaced(address indexed playe, uint256 amount);\r\n    event WinnerChosen(address indexed winner, uint256 amount);\r\n\r\n    constructor(){\r\n        owner  = msg.sender;\r\n    }\r\n\r\n    modifier onlyOwner(){\r\n        require(msg.sender==owner,\"Only owner can call this function\");\r\n        _;\r\n    }\r\n\r\n    function placeBet() public payable{\r\n        require(msg.value == betAmount, \"Bet amount must be 2 ETH.\");\r\n        require(!hasBet[msg.sender], \"The player with this address has already placed a bet.\");\r\n        \r\n        players.push(msg.sender);\r\n        hasBet[msg.sender] = true;\r\n\r\n        emit BetPlaced(msg.sender,msg.value);\r\n    }\r\n\r\n    function pickWinner() public onlyOwner{\r\n        require(players.length > 0, \"No players have placed bets.\");\r\n\r\n        uint256 randomIndex = uint256(keccak256(abi.encodePacked(block.prevrandao, block.timestamp, players))) % players.length;\r\n        address winner = players[randomIndex];\r\n\r\n        uint256 prizeAmount=address(this).balance;\r\n        payable(winner).transfer(prizeAmount);\r\n\r\n        emit WinnerChosen(winner, prizeAmount);\r\n\r\n        for (uint256 i = 0; i < players.length;i++){\r\n            hasBet[players[i]] = false;\r\n        }\r\n        delete players;\r\n    }\r\n\r\n    function getPool() public view returns (uint256){\r\n        return address(this).balance;\r\n    }\r\n\r\n    function getPlayers() public view returns (address[] memory){\r\n        return players;\r\n    }\r\n}\r\n\r\n",
  "sourcePath": "D:\\Study Stuff\\Sem_5\\CSC307\\Betting\\contracts\\Bet.sol",
  "compiler": {
    "name": "solc",
    "version": "0.8.19+commit.7dd6d404.Emscripten.clang"
  },
  "schemaVersion": "3.4.16",
  "updatedAt": "2024-11-15T07:56:53.735Z",
  "networkType": "ethereum",
  "devdoc": {
    "kind": "dev",
    "methods": {},
    "version": 1
  },
  "userdoc": {
    "kind": "user",
    "methods": {},
    "version": 1
  }
}